:020000040800F2
:1000000008040020050100084704000875010008E5
:100010004504000871010008830500080000000085
:1000200000000000000000000000000001050008C2
:1000300073010008000000004904000803050008DF
:100040001F0100081F0100081F0100081F01000810
:100050001F0100081F0100081F0100081F01000800
:100060001F0100081F0100081F0100081F010008F0
:100070001F0100081F0100081F0100081F010008E0
:100080001F0100081F0100081F0100081F010008D0
:100090001F0100081F0100081F0100081F010008C0
:1000A0001F0100081F0100081F0100081F010008B0
:1000B0001F0100081F0100081F0100081F010008A0
:1000C0001F0100081F0100081F0100081F01000890
:1000D0001F0100081F0100081F0100081F01000880
:1000E0001F0100081F0100081F010008DFF810D0E1
:1000F00000F02CF800480047A5050008AFF3008089
:10010000080400200648804706480047FEE7FEE74F
:10011000FEE7FEE7FEE7FEE7FEE7FEE7FEE7FEE7B7
:1001200081050008ED000008D2B201E000F8012BC3
:10013000491EFBD270470022F6E710B513460A4667
:1001400004461946FFF7F0FF204610BD064C074D48
:1001500006E0E06840F0010394E807009847103497
:10016000AC42F6D3FFF7C6FF580600087806000831
:10017000FEE77047FEE70000044908B58A690243BC
:100180008A6189690140009108BD000000100240A9
:10019000F0B50A68C2F30F2595FAA5F2B2FA82F318
:1001A00069E001229A402A4264D0082B03D240F22F
:1001B00001129A4006E0A3F108024FF001149440A6
:1001C00044F080624C68082C0BD10C69C668170A91
:1001D00097FAA7F7B7FA87F726EA1226BC40264314
:1001E000C66092FAA2F700EB1264B7FA87F74FEAFB
:1001F000870C0F27266807FA0CF7BE4392FAA2F77E
:10020000D1F804E0B7FA87F7BF000EFA07FE46EA16
:100210000E0626604F68012F01D0092F2AD192FACD
:10022000A2F7B7FA87F74FEA870C032707FA0CF70C
:10023000BE4392FAA2F7B7FA87F7D1F808E0BF00F9
:100240000EFA07FE92FAA2FC46EA0E06BCFA8CFCF5
:100250004FEA8C0E4FF0040C26600CFA0EFC92FA5A
:10026000A2F2B2FA82F2CF68920026EA0C06974018
:100270003E4326605B1C35FA03F292D10020F0BDAC
:100280004FF47A71B0FBF1F14FF0E020491E41616B
:100290000021816105210161704700B5034600F02E
:1002A000FFF8186000F0D2F8586000F0DDF89860B0
:1002B000586800F0E7F8D86000BD00000149086008
:1002C00070470000000000202DE9FF410446C0688F
:1002D0000D460126C0F34030F0BBE9686868E2686B
:1002E0000843296941F20C639A4311430843E060D3
:1002F000A868216921F4405101432161686961695D
:1003000021F44071014361616846FFF7C6FF24484C
:10031000844201D1039806E02248844202D0224858
:10032000844238D10298B8B12A68AAB100EBC00162
:1003300001EB00119200B1FBF2F36420B3FBF0F388
:10034000B1FBF2F56FF018077B43002605EB830540
:10035000322303EB051500E01DE0B1FBF2F7B5FB1E
:10036000F0F5B7FBF0F705F0F00505EB0715B1FB6D
:10037000F2F7B1FBF2F1B1FBF0F16FF0180251436B
:1003800007EB810103EB0111B1FBF0F000F00F006E
:10039000284480B2A06004B03046BDE8F08100007F
:1003A00000380140004400400048004030B58DB0A6
:1003B0001C216846FFF7BFFE142107A8FFF7BBFE0C
:1003C0004FF48040FFF7D8FE0420FFF7D5FE194810
:1003D00007900920089003200024CDE90904164D58
:1003E00007A92846FFF7D4FE144807900420089078
:1003F00007A92846FFF7CCFE4FF4E130CDE9000411
:1004000008200294CDE90340059406940C4C6946FB
:100410002046FFF759FF206920F490402061606971
:1004200020F02A006061E06840F40050E0600DB008
:1004300030BD000002000204000801400400040472
:1004400000380140FEE770477047000004494968E2
:10045000044A01F0F0010909515CC84070470000EE
:10046000001002404006000804494968044A01F4AB
:10047000E06102EB11210978C8407047001002408A
:100480005006000804494968044A01F4605102EB2F
:10049000D1210978C840704700100240500600087A
:1004A0000648406810F00C01054805D0042903D027
:1004B000082901D100F006B8704700000010024082
:1004C00000127A000B48416811F480320A4909D0C1
:1004D000B2F5803F06D14168084AC1F34041491C4A
:1004E000B2FBF1F14068022200F4701002EB904080
:1004F000484370470010024000093D0000127A0096
:10050000704770471B4810B5016821F00701016072
:10051000016811F0070FFBD11748016821F0F801BD
:1005200041F080010160016841F001010160016852
:10053000C1F340010029FAD0416821F0F001416087
:10054000416821F4E0614160416821F460514160FB
:10055000416821F003014160416811F00C0FFBD1AB
:10056000064C2046FFF78CFE2046BDE81040FFF702
:10057000A5BE0000002002400010024000127A00D8
:100580007047FEE702E008C8121F08C1002AFAD12E
:1005900070477047002001E001C1121F002AFBD103
:1005A000704700000EB51FA10024D1E90001CDE97C
:1005B00000010120FFF7E0FD1C48C16941F08051B6
:1005C000C161C0691A4900F08050029008684FF676
:1005D000FF021040174A40F440701043086016486C
:1005E000416821F0E0614160416841F00071416083
:1005F000FFF788FF2020FFF7BFFD0420FFF7BCFDB9
:10060000FFF7D4FE0D486A46115D641CE4B24160F8
:100610000168C1F3C0110029FAD0062CF4D10024DE
:10062000F2E700004B616D696E00000000100240AF
:100630000CED00E00000FA05000001400038014028
:100640000000000000000000010203040607080982
:1006500000000000010203047806000800000020EA
:1006600004000000840500087C0600080400002047
:0C06700004040000940500080024F400BD
:04000005080000ED02
:00000001FF
