:020000040800F2
:100000009804002005010008CF0E000859090008D7
:10001000CD0E00081508000881100008000000003F
:10002000000000000000000000000000B90F000800
:100030001908000800000000030F0008BB0F0008AB
:100040001F0100081F0100081F0100081F01000810
:100050001F0100081F0100081F0100081F01000800
:100060001F0100081F0100081F01000817080008F1
:100070001F0100081F0100081F0100081F010008E0
:100080001F0100081F010008F10700081F010008F8
:100090001F0100081F0100081F0100081F010008C0
:1000A0001F0100081F0100081F0100081F010008B0
:1000B0001F0100081F0100081F0100081F010008A0
:1000C0001F0100081F0100081F0100081F01000890
:1000D0001F010008451000081F0100081F0100084B
:1000E0001F0100081F0100081F010008DFF810D0E1
:1000F00000F04AFB00480047BD190008AFF300803C
:10010000980400200648804706480047FEE7FEE7BF
:10011000FEE7FEE7FEE7FEE7FEE7FEE7FEE7FEE7B7
:1001200041100008ED000008202A04DB203A21FAE3
:1001300002F00021704721FA02F3D040C2F1200200
:100140009140084319467047D2B201E000F8012BF4
:10015000491EFBD270470022F6E710B513460A4647
:1001600004461946FFF7F0FF204610BD30B480EA80
:10017000010202F0004530F0004221F0004013D0AF
:1001800090B1C30DD40DC2F31601C0F31600E41AEA
:1001900041F4000140F400027D34914201D3641C1B
:1001A00000E04900002C02DA30BC002070474FF418
:1001B00000000023914201D3891A034340084FEA0B
:1001C0004101F7D151B1914202D14FF0004105E018
:1001D00002D24FF0010101E06FF0010103EBC450C6
:1001E000284430BC00F0F5B82DE9FE4F81EA030445
:1001F00004F0004421F0004100944FF0000B23F084
:10020000004350EA01045ED052EA03045BD0C3F31A
:100210000A54C1F30A552C44A4F2F3340194A0FB10
:100220000254C1F3130141F48011C3F3130343F4E7
:10023000801301FB024400FB034E840A970A44EA40
:10024000815447EA8357A4FB076802958D0A05FB92
:1002500007854FEA932C04FB0C542705029D4FEAB7
:10026000065847EA1637B5EB08056EEB070C870E04
:10027000920E47EA811742EA8312A7FB0201B6EB0E
:100280000B0164EB00042B0D43EA0C335E1844EBC6
:100290001C50DA465146E7FB0201C5F313044FEA4E
:1002A0000B3343EA14534FEA0432019C43EA06033A
:1002B000A4F10C040294009CCDE900B400F0CFF846
:1002C00003B0BDE8F08F00200146F9E70EB540F21B
:1002D000334102910021CDE900110A460B4600F09E
:1002E000BEF803B000BD00F0004230F000400AD07C
:1002F000C10D01F56071C0F3160042EA0151C20858
:1003000040071143704700200146704701F0004349
:1003100030B421F0004150EA010206D00A0DA2F5E6
:100320006072C1F31301002A02DC30BC0020704768
:10033000440F44EAC104C100E01830BC00EBC250D5
:1003400000F047B830B50B460146002020220124BA
:1003500009E021FA02F59D4205D303FA02F5491B93
:1003600004FA02F52844151EA2F10102F1DC30BDA9
:100370002DE9F05F0546002092469B4688460646DA
:10038000814640241BE02846414647462246FFF767
:10039000CBFE53465A46C01A914110D31146184617
:1003A000224600F003FA2D1A67EB01084F46224659
:1003B0000120002100F0FAF917EB00094E41201E40
:1003C000A4F10104DFDC484631462A464346BDE835
:1003D000F09F0029A8BF7047401C490008BF20F0CB
:1003E0000100704710B4B0FA80FC00FA0CF050EA3B
:1003F000010404BF10BC704749B1CCF1200421FABC
:1004000004F411FA0CF118BF012121430843A3EBB6
:100410000C01CB1D4FEA00614FEA102042BF0020C3
:1004200010BC704700EBC35010440029A4BF10BC9F
:100430007047401C490008BF20F0010010BC704705
:1004400010B5141E73F1000408DA401C41F10001DC
:1004500092185B411A4301D120F0010010BD2DE933
:10046000F04D92469B4611B1B1FA81F202E0B0FA2A
:1004700080F22032904600F099F904460F4640EA97
:100480000A0041EA0B0153465A46084313D011466D
:1004900053EA010019D0C8F140025046FFF744FE6C
:1004A00005460E4650465946424600F07FF908433D
:1004B00005D0012004E020463946BDE8F08D00203B
:1004C000054346EAE0762C4337430A986305E40A7D
:1004D000A0EB08000022FD0A44EA47540A3002D586
:1004E00000200146E9E7010510196941DDE90845E9
:1004F00000196941BDE8F04DA2E72DE9FE4F8046A5
:1005000081EA0300C00F0C46009021F0004123F067
:100510000045B8EB0200A94105D24046214690466D
:100520001C460B46024623F00040104347D0270DDF
:10053000C7F30A00C3F30A510290401A0190402801
:100540006BDAC3F3130040F4801B0098924620B18D
:100550000023D2EB030A63EB0B0B01985946C0F161
:100560004002504600F022F906460D4650465946D4
:10057000019A00F02AF910EB08006141002487EA93
:10058000115284EAE7731A4340D0009A62B3019A89
:10059000012A4FEA075215DC001B61EB02014FF004
:1005A000004202EA0752CDE90042001C41F58011E9
:1005B00032462B46FFF753FF03B0BDE8F08F4046AD
:1005C0002146F9E7001B61EB0201001C41F5801395
:1005D00000185B412018A2F5001747EB030140EA21
:1005E000D570B6196D4111E06D084FEA360645EA3F
:1005F000C0754FEA0752001B61EB0201001C41F578
:10060000801149084FEA30000019514132462B460B
:1006100003B0BDE8F04FFFF713BF00980122400080
:100620000023D0EB020263EBE073009821464FEA0F
:10063000E074B8EB000061EB0401E9E783F00043EC
:100640005BE781F0004158E72DE9F04D81EA0304B2
:1006500004F0004B21F0004514464FF0000A23F04F
:10066000004150EA050220D054EA01021DD0C5F332
:100670000A570246C5F31303C1F31300C1F30A5628
:1006800040F4801543F48013A7EB0608101BD646F0
:1006900008F2FD3873EB050002D308F1010801E010
:1006A00092185B41B8F1000F03DA00200146BDE863
:1006B000F08D00204FF48011064684460EE0171B93
:1006C00073EB050705D3121B63EB050306434CEAE6
:1006D000010C49084FEA300092185B4150EA0107CB
:1006E000EDD152EA030012D082EA040083EA050148
:1006F000084305D0101BAB4106D20122002306E0BF
:1007000000224FF0004302E06FF0010253101AEB99
:1007100006004CEB085110EB0A0041EB0B01BDE861
:10072000F04DFFF78DBEC1F30A52C1F3130140F241
:10073000FF3341F480119A4202DA002001467047EB
:1007400040F233439A42A2F2334202DC5242FFF7B4
:10075000EBBC00F02BB8000030B5041E71F10004B2
:1007600004DB4FF00044404264EB0101141E73F1BE
:10077000000405DB1C464FF00043524263EB0403C8
:10078000994208BF904230BD064C074D06E0E06834
:1007900040F0010394E8070098471034AC42F6D3C8
:1007A000FFF7A8FC841B0008A41B0008202A04DB18
:1007B000203A00FA02F1002070479140C2F1200374
:1007C00020FA03F3194390407047202A06DBCB1729
:1007D000203A41FA02F043EAE07306E041FA02F3FC
:1007E000D040C2F1200291400843194670470000F2
:1007F00006480168C1F34001002905D06FF00201ED
:100800000160C06C0249088070470000002401406C
:100810000C000020FEE77047704700000248816826
:1008200002781144816070471C000020074810B511
:10083000016841F010010160032000F067F800201A
:1008400000F006F800F024F8002010BD002002405F
:1008500070B50D4D04464FF47A712878B1FBF0F075
:100860000A490968B1FBF0F000F062F848B9102CB1
:1008700007D200222146501E00F028F800206C60AC
:1008800070BD012070BD00001C0000202800002069
:100890000C4808B5816941F001018161816901F06D
:1008A00001010091C16941F08051C161C06900F04E
:1008B000805000900448416821F0E06141F00071EF
:1008C000416008BD0010024000000140F0B40E4B32
:1008D0001B680C46C3F30223C3F10705042D00D99E
:1008E0000425191D072901D2002300E0DB1E012683
:1008F00006FA05F1491E214099409E40761E164099
:100900003143F0BC00F0EBBB0CED00E0064900F019
:10091000070208684FF6FF03184040EA0220034A26
:1009200010430860704700000CED00E00000FA057D
:1009300010B5401EB0F1807F01D3012010BD4FF0F3
:10094000E02460610F21601700F0C9FB0020A06166
:1009500007202061002010BDFEE700000D4B10B500
:100960009B6800220C4C03F00103A46804F001040E
:10097000234302D00122104610BD096829B1436803
:1009800023F470230B434360F5E7416821F47021A1
:100990004160F0E7002401400028014010B5836861
:1009A000002213F0010F02D00122104610BD43684F
:1009B0004C6823F48073234343608368096823F4FD
:1009C00000630B438360F0E770B54B6884680022D6
:1009D00014F0010F02D00122104670BD33B18C68B3
:1009E0002343446824F46844234302E0436823F427
:1009F00068434360CC680B68856823430C69064EE6
:100A000035402C43234383604968C36A23F4700351
:100A10000B43C362E0E70000FDFEF1FF10B54FF4A9
:100A2000407494FAA4F401F44073B4FA84F4E340FB
:100A300000EB8300C36A01F01F011F248C4002F009
:100A40001F02A3438A401343C36210BD70B54FF029
:100A5000007494FAA4F401F00073B4FA84F4E3404F
:100A600000EB8300C3684FF0F87494FAA4F501F02A
:100A7000F871B5FA85F521FA05F50726AE4094FA26
:100A8000A4F4B4FA84F4E140B3438A401343C3604E
:100A900070BD0000044908B58A6902438A6189690A
:100AA0000140009108BD000000100240F0B50A6846
:100AB000C2F30F2595FAA5F2B2FA82F369E001229A
:100AC0009A402A4264D0082B03D240F201129A4085
:100AD00006E0A3F108024FF00114944044F0806254
:100AE0004C68082C0BD10C69C668170A97FAA7F74F
:100AF000B7FA87F726EA1226BC402643C66092FA68
:100B0000A2F700EB1264B7FA87F74FEA870C0F27BA
:100B1000266807FA0CF7BE4392FAA2F7D1F804E070
:100B2000B7FA87F7BF000EFA07FE46EA0E06266000
:100B30004F68012F01D0092F2AD192FAA2F7B7FAF4
:100B400087F74FEA870C032707FA0CF7BE4392FAA0
:100B5000A2F7B7FA87F7D1F808E0BF000EFA07FE50
:100B600092FAA2FC46EA0E06BCFA8CFC4FEA8C0E06
:100B70004FF0040C26600CFA0EFC92FAA2F2B2FAC4
:100B800082F2CF68920026EA0C0697403E43266028
:100B90005B1C35FA03F292D10020F0BD00B503468C
:100BA00000F0DAF9186000F0ADF9586000F0B8F91B
:100BB0009860586800F0C2F9D86000BD014908602B
:100BC00070470000280000202DE9FF410446C0685E
:100BD0000D460126C0F34030F0BBE9686868E26862
:100BE0000843296941F20C639A4311430843E060CA
:100BF000A868216921F44051014321616869616954
:100C000021F44071014361616846FFF7C7FF244842
:100C1000844201D1039806E02248844202D022484F
:100C2000844238D10298B8B12A68AAB100EBC00159
:100C300001EB00119200B1FBF2F36420B3FBF0F37F
:100C4000B1FBF2F56FF018077B43002605EB830537
:100C5000322303EB051500E01DE0B1FBF2F7B5FB15
:100C6000F0F5B7FBF0F705F0F00505EB0715B1FB64
:100C7000F2F7B1FBF2F1B1FBF0F16FF01802514362
:100C800007EB810103EB0111B1FBF0F000F00F0065
:100C9000284480B2A06004B03046BDE8F081000076
:100CA00000380140004400400048004008B54FF0C3
:100CB000E0210A690092421C00D0401C0A69D2035C
:100CC00000D5401E0028F9D108BD0000F0B58FB056
:100CD00000240B940C94142101A80D94FFF73BFA07
:100CE000142106A8FFF737FA4FF400763046FFF7D5
:100CF000D1FE0420FFF7CEFE40F20330CDE906041A
:100D000006A93C48FFF7D2FE3C4A3B481146127800
:100D1000825844F210039A430B78C2500A788258E2
:100D20000B7822F4405242F48052C2500A78825822
:100D30000B7842F02002C2500A7882580B7822F0D9
:100D40004002C2500A7882580B7842F08002C250AA
:100D50000A78851582580B7822F4407242F480722A
:100D6000C2500A788258097822F4406242F48062C4
:100D70004250234800680022C0F30220114600F0D0
:100D8000A7F80146122000F09AF9122000F08AF923
:100D90001C4F0BA93846CDE90B45FFF7FFFD0DA908
:100DA00038460D94FFF7DAFD4FF4602001902803D8
:100DB000CDE902040220CDE9040501A93846FFF778
:100DC00003FE114C314622463846FFF727FE00222B
:100DD00021463846FFF73AFE64062246711D384622
:100DE000FFF71CFE002221463846FFF72FFE0FB00A
:100DF000F0BD00000008014000000240641B000834
:100E00000CED00E0002401400100300230B58DB04F
:100E10001C216846FFF79FF9142107A8FFF79BF9EB
:100E20004FF48040FFF736FE0420FFF733FE2248E0
:100E300007900920089003200025CDE909051F4CE3
:100E400007A92046FFF732FE1D48079004200890AE
:100E500007A92046FFF72AFE1A4800680022C0F3BF
:100E60000220114600F034F80146252000F027F951
:100E7000252000F017F9144CE06840F02000E060F5
:100E80004FF4E130CDE900050C200295CDE9035087
:100E90000595694620460695FFF796FE206920F4E1
:100EA00090402061606920F02A006061E06840F4B1
:100EB0000050E0600DB030BD0200020400080140A7
:100EC000040004040CED00E000380140FEE7704728
:100ED00030B500F00703C3F10704042C00D9042443
:100EE000181D072801D2002300E0DB1E012505FAAA
:100EF00004F0401E084098409D406D1E1540284358
:100F000030BD704704494968044A01F0F0010909FD
:100F1000515CC84070470000001002406B1B000885
:100F200004494968044A01F4E06102EB112109789F
:100F3000C8407047001002407B1B00080449496804
:100F4000044A01F4605102EBD1210978C84070478E
:100F5000001002407B1B00080648406810F00C019E
:100F6000054805D0042903D0082901D100F006B8AE
:100F7000704700000010024000127A000B484168E0
:100F800011F480320A4909D0B2F5803F06D1416898
:100F9000084AC1F34041491CB2FBF1F1406802220A
:100FA00000F4701002EB904048437047001002407C
:100FB00000093D0000127A007047FFF72FBC0000C7
:100FC0001C4810B5016821F007010160016811F0AB
:100FD000070FFBD1184C206820F0F80040F080008B
:100FE0002060206840F0010020602068C0F34000CD
:100FF0000028FAD0606820F0F0006060606820F49B
:10100000E0606060606820F460506060606820F0BC
:1010100003006060606810F00C0FFBD10748FFF719
:10102000CDFD0020FFF714FC606820F440406060B4
:1010300010BD0000002002400010024000127A00A3
:10104000704700000B480168C1F3401100290FD020
:10105000426809488168094B0B44491C81601A7039
:101060008168642901D300218160C168491CC16085
:1010700070470000003801400C00002030000020C4
:10108000FEE700000FB4054B10B503A9044A02980F
:1010900000F006F910BC5DF814FB0000A919000867
:1010A0002C000020002809DB00F01F0201219140E4
:1010B0004009800000F1E020C0F8001170470907E6
:1010C000090E002804DB00F1E02080F800147047CE
:1010D00000F00F0000F1E02080F8141D70470907B0
:1010E000090E002804DB00F1E02080F800147047AE
:1010F00000F00F0000F1E02080F8141D704702E0BE
:1011000008C8121F08C1002AFAD170477047002092
:1011100001E001C1121F002AFBD170472DE9FF5FDA
:1011200082B00021DDE90430020DDDF840B0034358
:1011300018D044F61050A2F2FF3242431514119811
:1011400001281FD0A5EB0B00401C5FEA000A4FF0FE
:1011500000064E4FDFF83891B046504615D5CAF11B
:10116000000413E0119801244AA3012801D16FEA79
:101170000B010298119AC0E90031C0E9024206B0A1
:10118000BDE8F09FCBF10000DFE704460021404AB4
:10119000491842EB0450CDE9001012E0E00707D0F7
:1011A00032463B4640464946FFF71EF88046894690
:1011B00032463B4610461946FFF716F806460F46DC
:1011C0006410002CEAD1DDE90401DDE90023BAF165
:1011D000000F06DAFFF708F842464B46FFF704F81F
:1011E00005E0FFF731FA42464B46FFF72DFA044679
:1011F0000E460022284BFFF7AFFA03D84FF0FF301E
:10120000014607E00022254B20463146FFF775F9DD
:10121000FFF789FA102409E0002C0ADB0A220023D8
:10122000FFF7A6F8039B30321A55641E50EA0102FC
:10123000F2D1641C039AC4F111031444119A012AD7
:1012400003D0012208430DD10AE0084304D0002056
:101250004FF0110B119072E7A3EB0B056D1E0DE023
:101260005B4504DD4FF0000205F1010504E003DAFF
:101270004FF00002A5F10105002AECD00298119967
:10128000C0E90231C0E9004579E7000000001440E0
:101290000000F03F300000000000F0430000E03F9D
:1012A0002DE9FF4F95B09A46884606460025EEE1A7
:1012B000252877D100242746F94A0121039400E02C
:1012C000044316F8013F203B01FA03F01042F7D126
:1012D00030782A2811D06FF02F033078A0F1300237
:1012E000092A16D8039A44F0020402EB820203EBA7
:1012F00042021044761C0390EFE758F8042B039247
:10130000002A03DA504244F40054039044F00204EB
:10131000761C30782E2816D116F8010F44F00404FC
:101320002A280DD06FF02F023078A0F13003092B5E
:1013300009D807EB870302EB4303C718761CF3E7D2
:1013400058F8047B761C30786C280FD006DC4C28CB
:1013500017D068280DD06A2814D104E0742810D062
:101360007A280FD10DE044F400140AE044F480140C
:1013700001E044F440147278824202D104F58014F2
:10138000761C761C307866280BD013DC582877D072
:1013900009DC002875D04528F6D04628F4D0472827
:1013A0001AD193E118E0632835D0642879D06528F4
:1013B00012D18BE1702873D008DC6728F1D069283E
:1013C0006FD06E280DD06F2806D1ACE073282CD0DA
:1013D000752874D0782853D05246179990476D1CC1
:1013E00054E1C4F30250022809D003280DD0D8F8E4
:1013F000001004280DD00D6008F1040846E1D8F86B
:101400000010EA17C1E90052F6E7D8F800100D8085
:10141000F2E70D70F0E718F8041B8DF800100020BB
:101420008DF80100EB46012003E058F804BB4FF0B3
:10143000FF3061074FF0000102D40DE009F1010116
:101440008946B9420FDA8145F8DB1BF809100029FB
:10145000F4D108E009F1010189468142FADB1BF869
:1014600009100029F6D103985346A0EB090721463D
:101470003846179A00F080FA284400EB090507E087
:1014800044E008E10DE01BF8010B52461799904724
:10149000B9F10109F7D2534621463846179AF2E0CE
:1014A00039E00A21C4F302524FF0000B0091022AE6
:1014B00006D058F8040BC117032A09D00AE023E02C
:1014C00008F1070020F00702F2E80201904605E06B
:1014D00000B2C117042A01D140B2C117002906DAAF
:1014E0000A460021404261EB02012D2202E0220562
:1014F00004D52B228DF80420012203E0E20701D05D
:101500002022F7E7914657E00A2100E010214FF032
:10151000000B00910BE010214FF0000B44F004048D
:101520000827009103E008204FF0000B0090C4F35F
:101530000252022A05D058F8040B0021032A08D0D1
:1015400008E008F1070020F00702F2E802019046E7
:1015500003E080B2042A00D1C0B24FF00009220794
:101560002AD53278702A07D0DDF800C08CF0100C34
:101570005CEA0B0C05D00EE040228DF8042001221D
:1015800008E050EA010306D030238DF804308DF8CE
:10159000052002229146009B83F0080353EA0B03C7
:1015A0000AD150EA010201D1620705D530228DF837
:1015B00004204FF001097F1E3278582A04D039A246
:1015C0000C920CAA02920BE03BA2F9E75B46009A50
:1015D000FEF7CEFE0C9B9B5C029A521E0292137089
:1015E00050EA0102F2D1029804A9081A00F1200B76
:1015F000600702D524F4803400E001275F4502DD56
:10160000A7EB0B0000E0002000EB0B01009003981B
:101610004944401A0390E00306D453462146179AE2
:10162000039800F0A9F90544002706E001A85246F6
:10163000C05D179990476D1C7F1C4F45F6DBE0039A
:101640000CD553462146179A039800F095F90544A6
:1016500004E030205246179990476D1C0099481EAF
:1016600000900029F5DC08E00298029952460078C3
:10167000491C0291179990476D1CBBF10001ABF119
:10168000010BF1DC5BE100F065F90544761C307874
:1016900000287FF40DAE19B02846BDE8F08F000099
:1016A0000928010030313233343536373839616238
:1016B00063646566000000003031323334353637FC
:1016C000383941424344454600000000600700D4D9
:1016D000062708F1070020F00700F0E80223804603
:1016E00003F0004C5FEA0C0001D097A009E0200550
:1016F00001D596A005E0E00701D095A001E0AFF28A
:101700004C001390307823F0004365280CD006DCA1
:10171000452809D046281DD047287FD13BE06628C0
:1017200018D067287AD136E00021112F01DB112073
:1017300000E0781CCDE9000104A90CA8FFF7EEFC3D
:10174000DDE90D010C9A4FF0000B07F10109109231
:1017500000914EE04FF000400097CDE9011004A940
:101760000CA8FFF7DBFCDDE90D020C9B0F994FF095
:10177000000B91461093009211B9791C00EB0109FE
:10178000B7EB090003D4C0F1FF3B07F10109A9EB56
:101790000700019042E0012F00DA01270021112FFC
:1017A00001DD112000E03846CDE9000104A90CA8B4
:1017B000FFF7B4FCDDE90D010C9A00914FF0000B2E
:1017C000B946109221070FD4009A4A4503DA914690
:1017D00001E0A9F10109B9F1010F05DD109AA9F1A4
:1017E0000101515C3029F4D0B84202DA10F1040F43
:1017F00003DA0121CDE9011010E0002803DC834465
:10180000A9EB000102E0411C494500DD8946A0EB3F
:101810000B00401C01904FF000400290200705D4BF
:101820000198484502DB4FF0FF30019000208DF811
:101830004B0002980DF14B07B0F1004F25D002206C
:101840000C902B200D90029800280CDA4042029058
:101850002D200D9007E00A210298FEF773FD30312C
:10186000029007F8011D0C99481E0C900029F2DC2B
:1018700002980028EFD1791E0D980870307800F09A
:10188000200040F0450007F8020D11A8C01BC01D44
:1018900002901398007800B1012000EB0901019833
:1018A00001EBE071029801440398401A401E039036
:1018B000E00306D453462146179A039800F05CF8DB
:1018C00005441398007818B15246179990476D1C3B
:1018D000E00323D553462146179A039800F04CF8AD
:1018E00005441BE0BBF1000F07DB0098584504DD01
:1018F0001098179910F80B0001E017993020524604
:10190000904701980BF1010B401E05F10105019074
:1019100004D12E205246179990476D1CB9F1000151
:10192000A9F10109DEDC05E017F8010B5246179911
:1019300090476D1C0299481E02900029F4DC534622
:101940002146179A03989EE62D0000002B00000008
:10195000200000002DE9F041044600251E461746F0
:10196000880404D405E039462020B0476D1C641E6D
:10197000F9D52846BDE8F0812DE9F041044600255F
:101980001E469046C80301D5302700E02027880472
:1019900004D505E041463846B0476D1C641EF9D5B4
:1019A0002846BDE8F0810000034A914201D100F0D1
:1019B000C7B84FF0FF3070472C00002008B5FEF785
:1019C00035FFFFF7FDFA2020FFF764F80420FFF74A
:1019D00061F84148416941F001014161406900F00D
:1019E000010000903D4800680022C0F3022011462B
:1019F000FFF76EFA01460B20FFF761FB0B20FFF7A4
:101A000051FBFFF763F9FFF701FA3548816841F0B0
:101A100001018160816841F00401816000E000BF44
:101A20008168C1F380010029F9D1816841F4A001E6
:101A300081602E4C2A4B20462A4D4C3324780835A1
:101A4000284A2949635104782B1DE1500378111D60
:101A50005B5804786FF30F0343F00203635001787F
:101A60005158007841F0010111501F4EDFF880807D
:101A7000DFF880904FF0663740F2EE2A341F256879
:101A800036F81500FEF722FC3A464346FEF7ACFB5B
:101A9000FEF73CFC4946FEF769FBA06035B9FEF74E
:101AA00022FC02460B4614A0FFF7ECFA206801283E
:101AB00007D1A068FEF717FC02460B4617A0FFF7F8
:101AC000E1FA5046FFF7F2F82068401C2060022837
:101AD000D5D300202060D2E7001002400CED00E0DA
:101AE000002401400000024004000020641B0008A4
:101AF00066660A4000F07F45566F6C74616765202A
:101B00006F66204368616E6E656C302069733A20A1
:101B100025302E346620760D0A000000566F6C7456
:101B2000616765206F66204368616E6E656C312069
:101B300069733A2025302E346620760D0A000000A5
:101B400000B50346C0B200F003F8184600BD00001F
:101B500003490A68C2F3C012002AFAD048607047ED
:101B600000380140081C3044586C80000000000020
:101B7000000000010203040607080900000000013C
:101B800002030400A41B0008000000203000000035
:101B9000FE100008D41B000830000020680400007C
:101BA0000E1100080000000000000000000000000E
:101BB0000000000000000000000000000000000025
:101BC0000100000010000000000000000024F400EC
:041BD0000000000011
:04000005080000ED02
:00000001FF
