:020000040800F2
:1000000078040020050100083F05000817020008D9
:100010003D05000813020008B906000800000000B2
:10002000000000000000000000000000F9050008CA
:10003000150200080000000041050008FB0500084B
:100040001F0100081F0100081F0100081F01000810
:100050001F0100081F0100081F0100081F01000800
:100060001F0100081F0100081F0100081F010008F0
:100070001F0100081F0100081F0100081F010008E0
:100080001F0100081F0100081F0100081F010008D0
:100090001F0100081F0100081F0100081F010008C0
:1000A0001F0100081F0100081F0100081F010008B0
:1000B0001F0100081F0100081F0100081F010008A0
:1000C0001F0100081F0100081F0100081F01000890
:1000D0001F0100087D0600081F0100081F0100081D
:1000E0001F0100081F0100081F010008DFF810D0E1
:1000F00000F05EF800480047D1090008AFF3008027
:10010000780400200648804706480047FEE7FEE7DF
:10011000FEE7FEE7FEE7FEE7FEE7FEE7FEE7FEE7B7
:1001200079060008ED000008D2B201E000F8012BCA
:10013000491EFBD270470022F6E710B513460A4667
:1001400004461946FFF7F0FF204610BD2DE9F05F89
:100150000546002092469B46884606468146402436
:100160001BE0284641464746224600F042F85346E7
:100170005A46C01A914110D311461846224600F043
:1001800029F82D1A67EB01084F462246012000216D
:1001900000F020F817EB00094E41201EA4F10104E5
:1001A000DFDC484631462A464346BDE8F09F000062
:1001B000064C074D06E0E06840F0010394E80700B4
:1001C00098471034AC42F6D3FFF794FFEC0A0008CE
:1001D0000C0B0008202A04DB203A00FA02F1002070
:1001E00070479140C2F1200320FA03F31943904075
:1001F0007047202A04DB203A21FA02F000217047E0
:1002000021FA02F3D040C2F120029140084319467E
:100210007047FEE77047FEE7044908B58A69024364
:100220008A6189690140009108BD00000010024008
:10023000F0B50A68C2F30F2595FAA5F2B2FA82F377
:1002400069E001229A402A4264D0082B03D240F28E
:1002500001129A4006E0A3F108024FF00114944005
:1002600044F080624C68082C0BD10C69C668170AF0
:1002700097FAA7F7B7FA87F726EA1226BC40264373
:10028000C66092FAA2F700EB1264B7FA87F74FEA5A
:10029000870C0F27266807FA0CF7BE4392FAA2F7DD
:1002A000D1F804E0B7FA87F7BF000EFA07FE46EA76
:1002B0000E0626604F68012F01D0092F2AD192FA2D
:1002C000A2F7B7FA87F74FEA870C032707FA0CF76C
:1002D000BE4392FAA2F7B7FA87F7D1F808E0BF0059
:1002E0000EFA07FE92FAA2FC46EA0E06BCFA8CFC55
:1002F0004FEA8C0E4FF0040C26600CFA0EFC92FABA
:10030000A2F2B2FA82F2CF68920026EA0C06974077
:100310003E4326605B1C35FA03F292D10020F0BD0B
:100320004FF47A71B0FBF1F14FF0E020491E4161CA
:100330000021816105210161704700B5034600F08D
:100340002BF9186000F0FEF8586000F009F9986089
:10035000586800F013F9D86000BD0000014908603A
:10036000704700000C0000202DE9FF410446C068E2
:100370000D460126C0F34030F0BBE9686868E268CA
:100380000843296941F20C639A4311430843E06032
:10039000A868216921F440510143216168696169BC
:1003A00021F44071014361616846FFF7C6FF2448AC
:1003B000844201D1039806E02248844202D02248B8
:1003C000844238D10298B8B12A68AAB100EBC001C2
:1003D00001EB00119200B1FBF2F36420B3FBF0F3E8
:1003E000B1FBF2F56FF018077B43002605EB8305A0
:1003F000322303EB051500E01DE0B1FBF2F7B5FB7E
:10040000F0F5B7FBF0F705F0F00505EB0715B1FBCC
:10041000F2F7B1FBF2F1B1FBF0F16FF018025143CA
:1004200007EB810103EB0111B1FBF0F000F00F00CD
:10043000284480B2A06004B03046BDE8F0810000DE
:1004400000380140004400400048004008B54FF02B
:10045000E0210A690092421C00D0401C0A69D203C4
:1004600000D5401E0028F9D108BD000030B58DB080
:100470001C216846FFF75FFE142107A8FFF75BFE0B
:100480004FF48040FFF7C8FE0420FFF7C5FE254863
:1004900007900920089003200024CDE90904224D8B
:1004A00007A92846FFF7C4FE2048079004200890BB
:1004B00007A92846FFF7BCFE1D480068C0F30220CC
:1004C000011D072901D2002000E0C01E04FA00F13E
:1004D0000801184981F80004164920202139C1F883
:1004E00000014FF4E130CDE900040C200294CDE985
:1004F000034005940694104C69462046FFF734FFEC
:10050000206920F490402061606920F02A00606139
:10051000E06840F02000E060E06840F40050E060F7
:100520000DB030BD020002040008014004000404C4
:100530000CED00E025E000E000380140FEE77047E8
:100540007047000004494968044A01F0F0010909B4
:10055000515CC8407047000000100240D20A0008F9
:1005600004494968044A01F4E06102EB1121097869
:10057000C840704700100240E20A00080449496878
:10058000044A01F4605102EBD1210978C840704758
:1005900000100240E20A00080648406810F00C0112
:1005A000054805D0042903D0082901D100F006B878
:1005B000704700000010024000127A000B484168AA
:1005C00011F480320A4909D0B2F5803F06D1416862
:1005D000084AC1F34041491CB2FBF1F140680222D4
:1005E00000F4701002EB9040484370470010024046
:1005F00000093D0000127A00704770471B4810B593
:10060000016821F007010160016811F0070FFBD1BB
:100610001748016821F0F80141F08001016001688C
:1006200041F0010101600168C1F340010029FAD0E5
:10063000416821F0F0014160416821F4E0614160CE
:10064000416821F460514160416821F0030141603B
:10065000416811F00C0FFBD1064C2046FFF760FEFD
:100660002046BDE81040FFF779BE000000200240A0
:100670000010024000127A00704700000B48016829
:10068000C1F3401100290FD0426809484168094B65
:100690000B44491C41601A704168642901D3002150
:1006A00041608168491C816070470000003801404A
:1006B0000000002014000020FEE700000FB4054BEE
:1006C00010B503A9044A029800F018F810BC5DF8B0
:1006D00014FB0000BD0900081000002002E008C85B
:1006E000121F08C1002AFAD170477047002001E0AC
:1006F00001C1121F002AFBD1704700002DE9FF4FF6
:100700008DB09B460F460446002606E025280BD0F8
:100710005A460F999047641C761C20780028F5D122
:1007200011B03046BDE8F08F0025A8460122984957
:1007300000E0054314F8013F203B02FA03F00842B1
:10074000F7D120782E2817D114F8010F45F00405B1
:100750002A280ED06FF02F022078A0F1300109294D
:100760000AD808EB880102EB410100EB0108641C88
:10077000F2E757F8048B641C20786C280DD004DC59
:100780004C2812D06A2811D104E074280DD07A28A0
:100790000CD10AE045F4001507E0617845F48015B6
:1007A000814202D1641C05F58015641C20786928FB
:1007B00044D008DC0028B3D0582867D063280FD075
:1007C000642808D13AE0702865D0732812D07528C3
:1007D0005AD078285AD05A460F999047761CD5E0BF
:1007E00017F8040B8DF8000000208DF80100E94691
:1007F000012003E057F8049B4FF0FF3069074FF0EA
:10080000000501D40AE06D1C45450DDA8542FADB8E
:1008100019F805100029F6D106E06D1C8542FCDBB5
:1008200019F805100029F8D12E4404E019F8010B3D
:100830005A460F9990476D1EF8D2A7E00A20002172
:10084000CDE90801C5F3025002280CD001CFC11731
:10085000021E71F100020CDA0023D0EB030063EBFF
:1008600001012D2208E0FF1D27F00707F7E802012C
:10087000EEE72A0504D52B228DF8282001223CE042
:10088000EA073AD02022F7E70A2000E010200021F2
:10089000CDE9080107E01020002145F00405CDE96D
:1008A00008014FF00808C5F30250022810D001CF0C
:1008B00000214FF0000A2A0720D52278702A0DD097
:1008C000DDE908C38CF0100C5CEA030C0CD015E0D9
:1008D000FF1D27F00707F7E80201EAE740228DF83D
:1008E00028204FF0010A0CE050EA010306D0302323
:1008F0008DF828308DF82920022292462278582A35
:1009000004D024A20DF120090B9209E026A2F9E7F8
:10091000DDE90823FFF71AFC0B9B9B5C09F8013DFE
:1009200050EA0102F4D1ADEB0900203008906807CD
:1009300001D44FF001080899884503DD0898A8EB19
:10094000000000E000208046002506E00AA85A4684
:10095000405D0F9990476D1C761C5545F6DB04E011
:1009600030205A460F999047761CB8F10001A8F143
:100970000108F5DC05E019F8010B5A460F9990477C
:10098000761C0899481E08900029F4DC641CC4E613
:100990000928010030313233343536373839616255
:1009A0006364656600000000303132333435363719
:1009B000383941424344454600000000034A914211
:1009C00001D100F07FB84FF0FF30704710000020D9
:1009D00008B523480068C0F30B040120FFF71CFC96
:1009E0002048C16941F08051C161C0691E4900F0D1
:1009F0008050009008684FF6FF0210401B4A40F4F8
:100A00004070104308601A48416821F0E06141607D
:100A1000416841F000714160FFF7F0FD2020FFF7D1
:100A2000FBFB0420FFF7F8FBFFF720FD11480168EE
:100A300011A0FFF743FE0F48001D016812A0FFF749
:100A40003DFE0C480830016813A0FFF737FE214631
:100A500015A0FFF733FE4FF47A70FFF7F7FCFEE7BF
:100A6000002004E0001002400CED00E00000FA0558
:100A700000000140E8F7FF1F0D0A6964303D203097
:100A80007825580D0A0000000D0A6964313D2030B8
:100A90007825580D0A0000000D0A6964323D2030A7
:100AA0007825580D0A00000025580D0A00000000A6
:100AB00003490A68C2F3C012002AFAD0486070479E
:100AC0000038014000B50346C0B2FFF7F1FF1846F9
:100AD00000BD000000000000000001020304060742
:100AE0000809000000000102030400000C0B0008CC
:100AF0000000002014000000DC060008200B0008A5
:100B00001400002064040000EC060008000000004F
:100B100000000000000000000024F40000000000BD
:04000005080000ED02
:00000001FF
