:020000040800F2
:100000000804002005010008A3030008750100088A
:10001000A103000871010008790400080000000035
:10002000000000000000000000000000A70300081E
:100030007301000800000000A5030008A9030008E0
:100040001F0100081F0100081F0100081F01000810
:100050001F0100081F0100081F0100081F01000800
:100060001F0100081F0100081F0100081F010008F0
:100070001F0100081F0100081F0100081F010008E0
:100080001F0100081F0100081F0100081F010008D0
:100090001F0100081F0100081F0100081F010008C0
:1000A0001F0100084D0400081F0100081F0100087F
:1000B0001F0100081F0100081F0100081F010008A0
:1000C0001F0100081F0100081F0100081F01000890
:1000D0001F0100081F0100081F0100081F01000880
:1000E0001F0100081F0100081F010008DFF810D0E1
:1000F00000F02CF80048004799040008AFF3008096
:10010000080400200648804706480047FEE7FEE74F
:10011000FEE7FEE7FEE7FEE7FEE7FEE7FEE7FEE7B7
:1001200049040008ED000008D2B201E000F8012BFC
:10013000491EFBD270470022F6E710B513460A4667
:1001400004461946FFF7F0FF204610BD064C074D48
:1001500006E0E06840F0010394E807009847103497
:10016000AC42F6D3FFF7C6FF480500086805000853
:10017000FEE77047FEE70000044908B58A690243BC
:100180008A6189690140009108BD000000100240A9
:10019000F0B50A68C2F30F2595FAA5F2B2FA82F318
:1001A00069E001229A402A4264D0082B03D240F22F
:1001B00001129A4006E0A3F108024FF001149440A6
:1001C00044F080624C68082C0BD10C69C668170A91
:1001D00097FAA7F7B7FA87F726EA1226BC40264314
:1001E000C66092FAA2F700EB1264B7FA87F74FEAFB
:1001F000870C0F27266807FA0CF7BE4392FAA2F77E
:10020000D1F804E0B7FA87F7BF000EFA07FE46EA16
:100210000E0626604F68012F01D0092F2AD192FACD
:10022000A2F7B7FA87F74FEA870C032707FA0CF70C
:10023000BE4392FAA2F7B7FA87F7D1F808E0BF00F9
:100240000EFA07FE92FAA2FC46EA0E06BCFA8CFCF5
:100250004FEA8C0E4FF0040C26600CFA0EFC92FA5A
:10026000A2F2B2FA82F2CF68920026EA0C06974018
:100270003E4326605B1C35FA03F292D10020F0BDAC
:100280004FF47A71B0FBF1F14FF0E020491E41616B
:10029000002181610521016170470000014908606A
:1002A0007047000000000020F0B50268154B164CA6
:1002B000164D4FF08046984205D0B04203D0A04280
:1002C00001D0A84203D14F6822F070023A4398420D
:1002D00005D0B04203D0A04201D0A84203D1CC68DF
:1002E00022F44072224302608A68C2620A888262F3
:1002F000984201D109690163416941F001014161FD
:100300000020F0BD002C0140000400400008004027
:1003100010B586B014216846FFF70DFF4FF400605A
:10032000FFF72AFF1B480068C0F30220011D0729C0
:1003300001D2002000E0C01E002202FA00F10801F4
:10034000154981F800044FF0E0214FF00070C1F82A
:10035000000141F63F70ADF80000C010CDE901206A
:100360000E4C0392694620460492FFF79DFF2068D9
:1003700020F080002060A06844F207018843A0605C
:10038000606820F070006060A06820F08000A060CD
:1003900006B010BD0CED00E019E000E0002C0140BB
:1003A000FEE770477047704770470000234810B55C
:1003B000016821F007010160016811F0070FFBD10E
:1003C0001F48016841F4803101600168C1F3404178
:1003D0000029FAD0416821F47C1141F48031416058
:1003E000016841F0807101600168C1F3406100293A
:1003F000FAD0416821F0F0014160416821F4E061E8
:1004000041F4A0614160416821F4605141F4205100
:100410004160416821F0030141F0020141604168FF
:1004200001F00C010829FAD1064C2046FFF728FFFD
:100430002046BDE81040FFF731BF00000020024019
:10044000001002400024F4007047000008480169D1
:1004500011F0010F0BD06FF0010101610549C8686F
:100460004A14824300F4005042EA00400861704799
:10047000002C014000100140FEE702E008C8121FF6
:1004800008C1002AFAD170477047002001E001C17D
:10049000121F002AFBD1704786B00120FFF76CFEC7
:1004A0002248C16941F08051C161C069204900F012
:1004B0008050009008684FF6FF0210401D4A40F43B
:1004C0004070104308601C48416821F0E0614160C1
:1004D000416841F000714160FFF768FF14216846F0
:1004E000FFF729FE1020FFF747FE2020FFF744FE0C
:1004F0000420FFF741FE124810494FF400524261B8
:10050000009101210191022102910021039169468C
:10051000FFF73EFEFFF7FCFE0A48016841F00101CB
:100520000160C16841F00101C160F6E700100240BE
:100530000CED00E00000FA0500000140200020045E
:1005400000100140002C0140680500080000002058
:10055000040000007A0400086C0500080400002074
:0C056000040400008A0400080024F400D9
:04000005080000ED02
:00000001FF
