:020000040800F2
:100000000804002005010008C90200087501000865
:10001000C702000871010008670300080000000023
:10002000000000000000000000000000CD020008F9
:100030007301000800000000CB020008CF02000896
:100040001F0100081F0100081F0100081F01000810
:100050001F0100081F0100081F0100081F01000800
:100060001F0100081F0100081F0100081F010008F0
:100070001F0100081F0100081F0100081F010008E0
:100080001F0100081F0100081F0100081F010008D0
:100090001F0100081F0100081F0100081F010008C0
:1000A0001F0100081F0100081F0100081F010008B0
:1000B0001F0100081F0100081F0100081F010008A0
:1000C0001F0100081F0100081F0100081F01000890
:1000D0001F0100081F0100081F0100081F01000880
:1000E0001F0100081F0100081F010008DFF810D0E1
:1000F00000F02CF80048004789030008AFF30080A7
:10010000080400200648804706480047FEE7FEE74F
:10011000FEE7FEE7FEE7FEE7FEE7FEE7FEE7FEE7B7
:1001200065030008ED000008D2B201E000F8012BE1
:10013000491EFBD270470022F6E710B513460A4667
:1001400004461946FFF7F0FF204610BD064C074D48
:1001500006E0E06840F0010394E807009847103497
:10016000AC42F6D3FFF7C6FF34040008540400087D
:10017000FEE77047FEE70000044908B58A690243BC
:100180008A6189690140009108BD000000100240A9
:10019000F0B50A68C2F30F2595FAA5F2B2FA82F318
:1001A00069E001229A402A4264D0082B03D240F22F
:1001B00001129A4006E0A3F108024FF001149440A6
:1001C00044F080624C68082C0BD10C69C668170A91
:1001D00097FAA7F7B7FA87F726EA1226BC40264314
:1001E000C66092FAA2F700EB1264B7FA87F74FEAFB
:1001F000870C0F27266807FA0CF7BE4392FAA2F77E
:10020000D1F804E0B7FA87F7BF000EFA07FE46EA16
:100210000E0626604F68012F01D0092F2AD192FACD
:10022000A2F7B7FA87F74FEA870C032707FA0CF70C
:10023000BE4392FAA2F7B7FA87F7D1F808E0BF00F9
:100240000EFA07FE92FAA2FC46EA0E06BCFA8CFCF5
:100250004FEA8C0E4FF0040C26600CFA0EFC92FA5A
:10026000A2F2B2FA82F2CF68920026EA0C06974018
:100270003E4326605B1C35FA03F292D10020F0BDAC
:100280004FF47A71B0FBF1F14FF0E020491E41616B
:10029000002181610521016170470000014908606A
:1002A000704700000000002008B54FF0E0210A6907
:1002B0000092421C00D0401C0A69D20300D5401EA7
:1002C0000028F9D108BDFEE77047704770477047B6
:1002D000214810B5016821F007010160016811F0A3
:1002E000070FFBD11D48016841F4803101600168AE
:1002F000C1F340410029FAD0416821F47C1141F456
:1003000080314160016841F0807101600168C1F392
:1003100040610029FAD0416821F0F0014160416854
:1003200021F4E0614160416821F46051416041681D
:1003300021F0030141F002014160416801F00C012C
:100340000829FAD1064C2046FFF79AFF2046BDE85F
:100350001040FFF7A3BF0000002002400010024041
:100360000024F4007047FEE702E008C8121F08C12D
:10037000002AFAD170477047002001E001C1121F26
:10038000002AFBD17047000086B00120FFF7F4FE81
:100390002248C16941F08051C161C069204900F023
:1003A0008050009008684FF6FF0210401D4A40F44C
:1003B0004070104308601C48416821F0E0614160D2
:1003C000416841F000714160FFF782FF14216846E7
:1003D000FFF7B1FE1020FFF7CFFE2020FFF7CCFE85
:1003E0000420FFF7C9FE124D10494FF4005428466F
:1003F0006C61009101210191022102910021039180
:100400006946FFF7C5FE4FF4FA762C613046FFF7D8
:100410004BFF6C613046FFF747FFF6E700100240E4
:100420000CED00E00000FA0500000140200020046F
:1004300000100140540400080000002004000000E7
:1004400068030008580400080400002004040000A9
:08045000780300080024F40009
:04000005080000ED02
:00000001FF
